:100000000C9435000C945D000C945D000C945D0024
:100010000C945D000C945D000C945D000C945D00EC
:100020000C945D000C945D000C945D000C945D00DC
:100030000C945D000C945D000C945D000C945D00CC
:100040000C943C060C945D000C94E9030C943B0466
:100050000C945D000C945D000C945D000C945D00AC
:100060000C945D000C945D00AA0511241FBECFEF17
:10007000D8E0DEBFCDBF11E0A0E0B1E0E0E2FEE0FD
:1000800002C005900D92A031B107D9F713E0A0E1AD
:10009000B1E001C01D92AA3EB107E1F710E0CAE647
:1000A000D0E004C02297FE010E940A07C836D1079B
:1000B000C9F70E9401060C940E070C940000FB0186
:1000C000DC0102C001900D9241505040D8F70895D4
:1000D000CF92DF92EF92FF920F931F93CF93DF9314
:1000E000FC01E9012083628343838091360381838D
:1000F0008F5F809336038F0185E0E82EF12CE20EAE
:10010000F31E6FEF7FEFCC24DD2421C0D8012D91A9
:100110008D012627822F8295807F822790E0382FBD
:100120002227AC01A3E0440F551FAA95E1F724272D
:100130003527672F77276227732724E095958795C2
:100140002A95E1F7682779270894C11CD11CCE14A1
:10015000DF04E4F2EC5FFE4F619370839E01295F40
:100160003F4FC901DF91CF911F910F91FF90EF9009
:10017000DF90CF9008958F929F92AF92BF92CF92CF
:10018000DF92EF92FF920F93CF93DF93062F5901E7
:10019000E82EFF248DE090E0E89EF001E99EF00D4E
:1001A000F89EF00D1124E45EFC4F85819681019745
:1001B000099760F0108211821282138214821682D3
:1001C0001582178214861386128611868DE090E0C0
:1001D000E89EE001E99ED00DF89ED00D1124C45E8A
:1001E000DC4F1A828D819E818430910509F470C0A4
:1001F0008530910554F482309105B9F18330910531
:100200000CF09AC09923C4F4EAC18730910509F42F
:1002100042C18830910544F48530910509F4CBC082
:10022000069709F0DCC1F9C08830910509F47AC15C
:10023000099709F0D4C1A0C1053509F0D0C182E009
:1002400090E09E838D832FEF3FEF86E091E0E89E64
:10025000F001E99EF00DF89EF00D1124E05FFE4FD5
:10026000EC5FFE4F21933083BAC186E091E0E89EB7
:10027000F001E99EF00DF89EF00D1124E05FFE4FB5
:1002800000831F82DF01AC5FBE4F8C91EB5FFE4F9E
:100290008027282F2295207F282730E0522F4427BF
:1002A000C90163E0880F991F6A95E1F7482759272C
:1002B000808190E04827592704E0359527950A95D5
:1002C000E1F7422753274C93508384E090E031C0FC
:1002D00086E091E0E89EF001E99EF00DF89EF00DB9
:1002E0001124E05FFE4F0183DF01AC5FBE4F8C91B4
:1002F000EB5FFE4F8027282F2295207F282730E0B4
:10030000522F4427C90163E0880F991F6A95E1F7CE
:1003100048275927808190E04827592704E03595E0
:1003200027950A95E1F7422753274C93508383E0A2
:1003300090E09E838D8353C183E890E0E89EF001B6
:10034000E99EF00DF89EF00D1124EE0FFF1FEE5EFA
:10035000FE4F008386E091E0E89EF001E99EF00DFB
:10036000F89EF00D1124E05FFE4FDF01AC5FBE4F41
:100370008C91EB5FFE4F8027282F2295207F282726
:1003800030E0522F4427C90163E0880F991F6A9516
:10039000E1F748275927808190E04827592784E0D2
:1003A000359527958A95E1F7422753274C9350833B
:1003B00085E090E0BECF86E091E0E89EF001E99E06
:1003C000F00DF89EF00D1124E05FFE4F0383DF0176
:1003D000AC5FBE4F8C91EB5FFE4F8027282F22959C
:1003E000207F282730E0522F4427C90173E0880F6F
:1003F000991F7A95E1F748275927808190E048278F
:10040000592764E0359527956A95E1F742275327E8
:100410004C93508386E090E08CCF86E091E0E89E9C
:10042000F001E99EF00DF89EF00D1124E05FFE4F03
:100430000483BF016C5F7E4FDB018C9195E0C92E78
:1004400091E0D92ECE0EDF1E8027282F2295207F07
:10045000282730E0522F4427C901A3E0880F991FB5
:10046000AA95E1F748275927D6018C9190E04827B3
:10047000592794E0359527959A95E1F74227532718
:10048000DB014C93D6015C938081882309F447C03B
:1004900087E090E04ECF6F8186E091E0E89ED0014A
:1004A000E99EB00DF89EB00D1124A05FBE4FFD0176
:1004B000E60FF11D05836F5F6F8384E0C82E81E036
:1004C000D82ECA0EDB1EF6018081F5E08F2EF1E0FA
:1004D0009F2E8A0E9B1E8027282F2295207F28275B
:1004E00030E0522F4427C90173E0880F991F7A9595
:1004F000E1F748275927F401808190E048275927E0
:1005000094E0359527959A95E1F742275327F60110
:100510004083F40150838C91681709F060C088E033
:1005200090E007CF86E091E0E89EF001E99EF00DB3
:10053000F89EF00D1124E05FFE4FDF01AC5FBE4F6F
:100540008C910817B1F08C818F5F8C831A8281E0C7
:1005500090E09E838D83053509F041C082E090E0F4
:100560009E838D838FEF9FEF8C93EB5FFE4F908385
:1005700036C089E090E0DDCE86E091E0E89EF001B3
:10058000E99EF00DF89EF00D1124E05FFE4FDF01B3
:10059000AB5FBE4F8C910817A9F08C818F5F8C8365
:1005A0001A8281E090E09E838D830535C1F482E05C
:1005B00090E09E838D838FEF9FEFEC5FFE4F8083F3
:1005C0009C930DC081E08A8381E090E09E838D83BF
:1005D000DA0186E091E001900D920197E1F78DE05C
:1005E00090E0E89ED001E99EB00DF89EB00D112478
:1005F000A45EBC4F12968C911297813049F586E02B
:1006000091E0E89EF001E99EF00DF89EF00D1124B6
:10061000E05FFE4F818118968C93189719968D9103
:100620009C911A97892B21F41C961C921E921B9761
:100630008DE090E0E89EF001E99EF00DF89EF00D4F
:100640001124E45EFC4F8185928501969287818713
:100650008DE090E0E89EF001E99EF00DF89EF00D2F
:100660001124E45EFC4F80858F5FD50118968C9332
:100670001897818592851A969C938E9319978481F9
:100680001B968C931B971C961C928281DF91CF91B5
:100690000F91FF90EF90DF90CF90BF90AF909F9021
:1006A0008F900895EF92FF920F931F93DF93CF9354
:1006B000CDB7DEB7C351D1400FB6F894DEBF0FBE41
:1006C000CDBFEEE0EE2EF12CEC0EFD1E8E010F5F85
:1006D0001F4F0AC08FEB93E00E943105682F80E026
:1006E000A70198010E94BB008FEB93E00E94FD04DC
:1006F000181619067CF3CD5EDE4F0FB6F894DEBFF8
:100700000FBECDBFCF91DF911F910F91FF90EF9062
:100710000895EF92FF920F931F93DF93CF93CDB77E
:10072000DEB7CD50D2400FB6F894DEBF0FBECDBFBE
:100730001D8282E08E831F827E010894E11CF11CE1
:10074000C70164E648EC22E030E00E9468008E01B8
:10075000095F1E4FF80185E58193298130E02B5F09
:100760003F4FCF01B701A9010E945F00498150E0CE
:10077000DA01A00FB11FFE01EB5FFE4F80811696DC
:100780008C931697FE01EA5FFE4F808117968C933B
:10079000485F5F4F8FEB93E0B8010E9412060E9402
:1007A0005203C35FDD4F0FB6F894DEBF0FBECDBF5F
:1007B000CF91DF911F910F91FF90EF9008958FEBF4
:1007C00093E040E051EE60E070E00E94760408950E
:1007D00008951F920F920FB60F9211242F933F93FB
:1007E0004F938F939F93EF93FF938091C00082FD6F
:1007F0001DC04091C60020917703309178032F5F90
:100800003F4F2F7330708091790390917A032817AE
:10081000390771F0E0917703F0917803E95CFC4FC0
:100820004083309378032093770302C08091C60001
:10083000FF91EF919F918F914F913F912F910F9049
:100840000FBE0F901F901895E091CB03F091CC0351
:10085000E05CFF4F8191919120813181805C9F4FBD
:10086000821B930B60E470E00E94BF06892B11F09D
:100870000E94E80308951F920F920FB60F92112461
:100880002F933F938F939F93EF93FF932091BB03FD
:100890003091BC038091BD039091BE0328173907A6
:1008A00031F48091C1008F7D8093C10014C0E0912C
:1008B000BD03F091BE03E558FC4F20818091BD033C
:1008C0009091BE0301968F7390709093BE038093B6
:1008D000BD032093C600FF91EF919F918F913F91AF
:1008E0002F910F900FBE0F901F901895AF92BF924F
:1008F000DF92EF92FF920F931F93CF93DF93EC0160
:100900007A018B01DD24403081EE580780E06807D2
:1009100080E0780711F0DD24D39491E0A92EB12C6A
:10092000EC89FD89DD2069F0C50108A002C0880FAF
:10093000991F0A94E2F7808360E079E08DE390E00C
:1009400005C0108260E874E88EE190E0A80197018C
:100950000E94D20621503040404050405695479565
:100960003795279580E12030380720F0DD2011F001
:10097000DD24D6CFE889F9893083EA89FB89208391
:1009800019A2EE89FF89408121E030E0C9010C8C79
:1009900002C0880F991F0A94E2F7482B4083EE8922
:1009A000FF894081C9010D8C02C0880F991F0A94EC
:1009B000E2F7482B4083EE89FF894081C9010E8C04
:1009C00002C0880F991F0A94E2F7482B4083EE89F2
:1009D000FF8980810F8C02C0220F331F0A94E2F737
:1009E000209528232083DF91CF911F910F91FF90B5
:1009F000EF90DF90BF90AF900895DC011C96ED91D1
:100A0000FC911D97E05CFF4F819191912081318194
:100A1000805C9F4F821B930B60E470E00E94BF06D6
:100A20000895DC011C96ED91FC911D97E05CFF4F51
:100A300020813181E054F040DF01AE5BBF4F8D91EA
:100A40009C9111972817390719F42FEF3FEF07C032
:100A50008D919C91E80FF91F8081282F30E0C9010A
:100A60000895DC011C96ED91FC911D97E05CFF4F11
:100A700020813181E054F040DF01AE5BBF4F8D91AA
:100A80009C9111972817390719F42FEF3FEF10C0E9
:100A90008D919C911197E80FF91F20818D919C9168
:100AA000119701968F73907011969C938E9330E0FE
:100AB000C9010895DC0191968C919197882339F0B2
:100AC0005496ED91FC915597808186FFF9CF9196D0
:100AD0001C920895CF93DF93EC01EE85FF85E05CD7
:100AE000FF4F20813181E054F0402F5F3F4F2F7343
:100AF0003070DF01AE5BBF4F8D919C91119728172D
:100B00003907D1F3E05CFF4F80819181E054F040E0
:100B1000E80FF91F6083EE85FF85E05CFF4F3183AE
:100B20002083EE89FF89208181E090E00F8C02C054
:100B3000880F991F0A94E2F7282B208381E089A36C
:100B4000EC89FD8980818064808381E090E0DF9181
:100B5000CF9108951092C2031092C10388EE93E0E2
:100B6000A0E0B0E08093C3039093C403A093C503B7
:100B7000B093C60384E091E09093C0038093BF03D9
:100B800087E393E09093CC038093CB038BE793E0D0
:100B90009093CE038093CD0385EC90E09093D003A7
:100BA0008093CF0384EC90E09093D2038093D103A1
:100BB00080EC90E09093D4038093D30381EC90E099
:100BC0009093D6038093D50382EC90E09093D80362
:100BD0008093D70386EC90E09093DA038093D90357
:100BE00084E08093DB0383E08093DC0387E08093E1
:100BF000DD0385E08093DE0381E08093DF030895C9
:100C00000895CF93DF930E9484060E9400060E94FD
:100C1000DF03C4E2D4E00E9489032097E1F30E943D
:100C20002404F9CFCF92DF92EF92FF920F931F939C
:100C3000CF93DF937C016B018A01C0E0D0E00FC04D
:100C4000D6016D916D01D701ED91FC910190F0817C
:100C5000E02DC7010995C80FD91F0150104001159B
:100C6000110571F7CE01DF91CF911F910F91FF9088
:100C7000EF90DF90CF9008951F920F920FB60F92D2
:100C800011242F933F938F939F93AF93BF938091A2
:100C9000E5039091E603A091E703B091E80330915A
:100CA000E9030196A11DB11D232F2D5F2D3720F0E3
:100CB0002D570196A11DB11D2093E9038093E503F3
:100CC0009093E603A093E703B093E8038091E103D8
:100CD0009091E203A091E303B091E4030196A11D7A
:100CE000B11D8093E1039093E203A093E303B093DB
:100CF000E403BF91AF919F918F913F912F910F90FE
:100D00000FBE0F901F901895789484B5826084BDB3
:100D100084B5816084BD85B5826085BD85B58160FF
:100D200085BDEEE6F0E0808181608083E1E8F0E05F
:100D30001082808182608083808181608083E0E88E
:100D4000F0E0808181608083E1EBF0E0808184606D
:100D50008083E0EBF0E0808181608083EAE7F0E06F
:100D600080818460808380818260808380818160D3
:100D700080838081806880831092C100089597FBF2
:100D8000092E07260AD077FD04D02ED006D00020E9
:100D90001AF4709561957F4F0895F6F790958195B7
:100DA0009F4F0895A1E21A2EAA1BBB1BFD010DC087
:100DB000AA1FBB1FEE1FFF1FA217B307E407F5070B
:100DC00020F0A21BB30BE40BF50B661F771F881FE7
:100DD000991F1A9469F760957095809590959B017D
:100DE000AC01BD01CF010895AA1BBB1B51E107C097
:100DF000AA1FBB1FA617B70710F0A61BB70B881FAB
:100E0000991F5A95A9F780959095BC01CD01089539
:100E1000EE0FFF1F0590F491E02D0994F894FFCF99
:100E2000000000006A051206FD04310511055A058F
:00000001FF
